{
  "contractName": "CrowdFunding",
  "abi": [
    {
      "constant": true,
      "inputs": [],
      "name": "deadline",
      "outputs": [
        {
          "name": "",
          "type": "uint256"
        }
      ],
      "payable": false,
      "stateMutability": "view",
      "type": "function"
    },
    {
      "constant": true,
      "inputs": [],
      "name": "goal",
      "outputs": [
        {
          "name": "",
          "type": "uint256"
        }
      ],
      "payable": false,
      "stateMutability": "view",
      "type": "function"
    },
    {
      "constant": true,
      "inputs": [],
      "name": "amountRaised",
      "outputs": [
        {
          "name": "",
          "type": "uint256"
        }
      ],
      "payable": false,
      "stateMutability": "view",
      "type": "function"
    },
    {
      "constant": true,
      "inputs": [],
      "name": "owner",
      "outputs": [
        {
          "name": "",
          "type": "address"
        }
      ],
      "payable": false,
      "stateMutability": "view",
      "type": "function"
    },
    {
      "constant": true,
      "inputs": [],
      "name": "numBacker",
      "outputs": [
        {
          "name": "",
          "type": "uint256"
        }
      ],
      "payable": false,
      "stateMutability": "view",
      "type": "function"
    },
    {
      "constant": true,
      "inputs": [],
      "name": "campaignStatus",
      "outputs": [
        {
          "name": "",
          "type": "string"
        }
      ],
      "payable": false,
      "stateMutability": "view",
      "type": "function"
    },
    {
      "inputs": [
        {
          "name": "_deadline",
          "type": "uint256"
        },
        {
          "name": "_goal",
          "type": "uint256"
        }
      ],
      "payable": false,
      "stateMutability": "nonpayable",
      "type": "constructor"
    },
    {
      "anonymous": false,
      "inputs": [
        {
          "indexed": false,
          "name": "id",
          "type": "uint256"
        },
        {
          "indexed": false,
          "name": "name",
          "type": "string"
        },
        {
          "indexed": false,
          "name": "_from",
          "type": "address"
        },
        {
          "indexed": false,
          "name": "amount",
          "type": "uint256"
        }
      ],
      "name": "Deposit",
      "type": "event"
    },
    {
      "anonymous": false,
      "inputs": [
        {
          "indexed": false,
          "name": "id",
          "type": "uint256"
        },
        {
          "indexed": false,
          "name": "name",
          "type": "string"
        },
        {
          "indexed": false,
          "name": "backer",
          "type": "address"
        },
        {
          "indexed": false,
          "name": "amount",
          "type": "uint256"
        }
      ],
      "name": "Refund",
      "type": "event"
    },
    {
      "constant": false,
      "inputs": [
        {
          "name": "_name",
          "type": "string"
        }
      ],
      "name": "fund",
      "outputs": [],
      "payable": true,
      "stateMutability": "payable",
      "type": "function"
    },
    {
      "constant": false,
      "inputs": [],
      "name": "checkGoalReached",
      "outputs": [
        {
          "name": "ended",
          "type": "bool"
        }
      ],
      "payable": false,
      "stateMutability": "nonpayable",
      "type": "function"
    }
  ],
  "bytecode": "0x608060405234801561001057600080fd5b506040516040806109048339810180604052604081101561003057600080fd5b50805160209182015160008054600160a060020a03191633178155600155600282905560058190556040805180820190915260078082527f46756e64696e670000000000000000000000000000000000000000000000000091909401908152919290916100a091600391906100b7565b50506000600655506004805460ff19169055610152565b828054600181600116156101000203166002900490600052602060002090601f016020900481019282601f106100f857805160ff1916838001178555610125565b82800160010185558215610125579182015b8281111561012557825182559160200191906001019061010a565b50610131929150610135565b5090565b61014f91905b80821115610131576000815560010161013b565b90565b6107a3806101616000396000f3fe60806040526004361061008d5763ffffffff7c010000000000000000000000000000000000000000000000000000000060003504166301cb3b20811461009257806329dcb0cf146100bb57806340193883146100e257806373451f65146100f75780637b3e5e7b1461019f5780638da5cb5b146101b4578063e7a05129146101e5578063f3a4721a146101fa575b600080fd5b34801561009e57600080fd5b506100a7610284565b604080519115158252519081900360200190f35b3480156100c757600080fd5b506100d0610490565b60408051918252519081900360200190f35b3480156100ee57600080fd5b506100d0610496565b61019d6004803603602081101561010d57600080fd5b81019060208101813564010000000081111561012857600080fd5b82018360208201111561013a57600080fd5b8035906020019184600183028401116401000000008311171561015c57600080fd5b91908080601f01602080910402602001604051908101604052809392919081815260200183838082843760009201919091525092955061049c945050505050565b005b3480156101ab57600080fd5b506100d0610640565b3480156101c057600080fd5b506101c9610646565b60408051600160a060020a039092168252519081900360200190f35b3480156101f157600080fd5b506100d0610655565b34801561020657600080fd5b5061020f61065b565b6040805160208082528351818301528351919283929083019185019080838360005b83811015610249578181015183820152602001610231565b50505050905090810190601f1680156102765780820380516001836020036101000a031916815260200191505b509250505060405180910390f35b6000600254421061029457600080fd5b600554600654106102ed576040805180820190915260128082527f43616d706169676e20537563636565646564000000000000000000000000000060209092019182526102e3916003916106e9565b506001905061048d565b60408051808201909152600f8082527f43616d706169676e206661696c656400000000000000000000000000000000006020909201918252610331916003916106e9565b5060019050805b600154811161048b5760008181526007602052604080822060028101546003909101549151600160a060020a039091169282156108fc02929190818181858888f1935050505015801561038f573d6000803e3d6000fd5b50600081815260076020908152604091829020805460028083015460038401548651848152600160a060020a0390921696820187905260608201819052608095820186815260019586018054600019978116156101000297909701909616939093049582018690527f5920bb01d6c38b75a230b6ea28c2bae5804aaa8dc397502227ffdf27e14cd82096939590929060a0830190869080156104725780601f1061044757610100808354040283529160200191610472565b820191906000526020600020905b81548152906001019060200180831161045557829003601f168201915b50509550505050505060405180910390a1600101610338565b505b90565b60025481565b60055481565b80516000106104aa57600080fd5b6001805481018082556040805160808101825282815260208082018681523383850152346060840152600094855260078252929093208151815591518051919492936104fb938501929101906106e9565b5060408281015160028301805473ffffffffffffffffffffffffffffffffffffffff1916600160a060020a03928316179055606090930151600390920191909155600680543490810190915560008054925192909316926108fc8215029290818181858888f19350505050158015610577573d6000803e3d6000fd5b507f5663e1cafc29e647fb694b8d42543220286df1f299fa643e9567cd3e84057bc5600154823334604051808581526020018060200184600160a060020a0316600160a060020a03168152602001838152602001828103825285818151815260200191508051906020019080838360005b838110156106005781810151838201526020016105e8565b50505050905090810190601f16801561062d5780820380516001836020036101000a031916815260200191505b509550505050505060405180910390a150565b60065481565b600054600160a060020a031681565b60015481565b6003805460408051602060026001851615610100026000190190941693909304601f810184900484028201840190925281815292918301828280156106e15780601f106106b6576101008083540402835291602001916106e1565b820191906000526020600020905b8154815290600101906020018083116106c457829003601f168201915b505050505081565b828054600181600116156101000203166002900490600052602060002090601f016020900481019282601f1061072a57805160ff1916838001178555610757565b82800160010185558215610757579182015b8281111561075757825182559160200191906001019061073c565b5061048b9261048d9250905b8082111561048b576000815560010161076356fea165627a7a723058200db83a074d80bb1d8ed81262de7af4e458b77e9d277cd6da956488a5f64af6310029",
  "source": "pragma solidity ^0.5.0;\n\ncontract CrowdFunding{\n\tstruct Backer{\n\t\tuint id;\n\t\tstring name;\n\t\taddress payable addr;\n\t\tuint amount;\n\t}\n\n\taddress payable public owner;\n\tuint public numBacker;\n\tuint public deadline;\n\tstring public campaignStatus;\n\tbool ended;\n\tuint public goal;\n\tuint public amountRaised;\n\tmapping (uint => Backer) backers;\n\n\tevent Deposit(uint id, string name, address _from, uint amount);\n\tevent Refund(uint id, string name, address backer, uint amount);\n\n\tconstructor(uint _deadline, uint _goal) public {\n\t\towner = msg.sender;\n\t\tnumBacker = 0;\n\t\tdeadline = _deadline;\n\t\tgoal = _goal;\n\t\tcampaignStatus = \"Funding\";\n\t\tamountRaised = 0;\n\t\tended = false;\n\t}\n\n\tfunction fund(string memory _name) public payable{\n\t\t//Require a valid name\n\t\trequire(bytes(_name).length > 0);\n\t\t//Increment number of Backers\n\t\tnumBacker++;\n\t\t//Create the backer\n\t\tbackers[numBacker] = Backer(numBacker, _name, msg.sender, msg.value);\n\t\t//Add the amount to raised amount\t\n\t\tamountRaised += msg.value;\n\t\t//send amount from backer to owner\n\t\towner.transfer(msg.value);\n\t\t//triggre an event\n\t\temit Deposit(numBacker, _name, msg.sender, msg.value);\n\t}\n\n\tfunction checkGoalReached() public returns (bool ended) {\n\t\t//Check if Campaign ended\n\t\trequire(!ended);\n\t\trequire(block.timestamp < deadline);\n\n\t\tif(amountRaised >= goal) {\n\t\t\tcampaignStatus = \"Campaign Succeeded\";\n\t\t\tended = true;\t\t\t\n\t\t} else {\n\t\t\tcampaignStatus = \"Campaign failed\";\n\t\t\tended = true;\n\t\t\tfor(uint i = 1; i <= numBacker; i++){\n\t\t\t\tbackers[i].addr.transfer(backers[i].amount);\n\t\t\t\temit Refund(backers[i].id, backers[i].name, backers[i].addr, backers[i].amount);\n\t\t\t}\n\t\t}\n\t}\n}",
  "sourcePath": "/home/guha/sol_code/CrowdFunding/contracts/CrowdFunding.sol",
  "compiler": {
    "name": "solc",
    "version": "0.5.0+commit.1d4f565a.Emscripten.clang"
  },
  "schemaVersion": "3.0.2",
  "updatedAt": "2019-11-27T13:46:33.821Z",
  "devdoc": {
    "methods": {}
  },
  "userdoc": {
    "methods": {}
  }
}