{
  "contractName": "CrowdFunding",
  "abi": [
    {
      "constant": true,
      "inputs": [],
      "name": "deadline",
      "outputs": [
        {
          "name": "",
          "type": "uint256"
        }
      ],
      "payable": false,
      "stateMutability": "view",
      "type": "function"
    },
    {
      "constant": true,
      "inputs": [],
      "name": "goal",
      "outputs": [
        {
          "name": "",
          "type": "uint256"
        }
      ],
      "payable": false,
      "stateMutability": "view",
      "type": "function"
    },
    {
      "constant": true,
      "inputs": [],
      "name": "amountRaised",
      "outputs": [
        {
          "name": "",
          "type": "uint256"
        }
      ],
      "payable": false,
      "stateMutability": "view",
      "type": "function"
    },
    {
      "constant": true,
      "inputs": [],
      "name": "owner",
      "outputs": [
        {
          "name": "",
          "type": "address"
        }
      ],
      "payable": false,
      "stateMutability": "view",
      "type": "function"
    },
    {
      "constant": true,
      "inputs": [],
      "name": "numBacker",
      "outputs": [
        {
          "name": "",
          "type": "uint256"
        }
      ],
      "payable": false,
      "stateMutability": "view",
      "type": "function"
    },
    {
      "constant": true,
      "inputs": [],
      "name": "campaignStatus",
      "outputs": [
        {
          "name": "",
          "type": "string"
        }
      ],
      "payable": false,
      "stateMutability": "view",
      "type": "function"
    },
    {
      "inputs": [
        {
          "name": "_deadline",
          "type": "uint256"
        },
        {
          "name": "_goal",
          "type": "uint256"
        }
      ],
      "payable": false,
      "stateMutability": "nonpayable",
      "type": "constructor"
    },
    {
      "anonymous": false,
      "inputs": [
        {
          "indexed": false,
          "name": "_from",
          "type": "address"
        },
        {
          "indexed": false,
          "name": "amount",
          "type": "uint256"
        }
      ],
      "name": "Deposit",
      "type": "event"
    },
    {
      "constant": false,
      "inputs": [],
      "name": "fund",
      "outputs": [],
      "payable": true,
      "stateMutability": "payable",
      "type": "function"
    }
  ],
  "bytecode": "0x608060405234801561001057600080fd5b506040516040806104e48339810180604052604081101561003057600080fd5b50805160209182015160008054600160a060020a03191633178155600155600282905560058190556040805180820190915260078082527f46756e64696e670000000000000000000000000000000000000000000000000091909401908152919290916100a091600391906100b7565b50506000600655506004805460ff19169055610152565b828054600181600116156101000203166002900490600052602060002090601f016020900481019282601f106100f857805160ff1916838001178555610125565b82800160010185558215610125579182015b8281111561012557825182559160200191906001019061010a565b50610131929150610135565b5090565b61014f91905b80821115610131576000815560010161013b565b90565b610383806101616000396000f3fe6080604052600436106100825763ffffffff7c010000000000000000000000000000000000000000000000000000000060003504166329dcb0cf811461008757806340193883146100ae5780637b3e5e7b146100c35780638da5cb5b146100d8578063b60d428814610116578063e7a0512914610120578063f3a4721a14610135575b600080fd5b34801561009357600080fd5b5061009c6101bf565b60408051918252519081900360200190f35b3480156100ba57600080fd5b5061009c6101c5565b3480156100cf57600080fd5b5061009c6101cb565b3480156100e457600080fd5b506100ed6101d1565b6040805173ffffffffffffffffffffffffffffffffffffffff9092168252519081900360200190f35b61011e6101ed565b005b34801561012c57600080fd5b5061009c6102ac565b34801561014157600080fd5b5061014a6102b2565b6040805160208082528351818301528351919283929083019185019080838360005b8381101561018457818101518382015260200161016c565b50505050905090810190601f1680156101b15780820380516001836020036101000a031916815260200191505b509250505060405180910390f35b60025481565b60055481565b60065481565b60005473ffffffffffffffffffffffffffffffffffffffff1681565b60018054810190556101fd610340565b5060015460009081526007602090815260408051808201825233815234928101839052600680548401905583549151909373ffffffffffffffffffffffffffffffffffffffff909216926108fc81150292909190818181858888f1935050505015801561026e573d6000803e3d6000fd5b506040805133815234602082015281517fe1fffcc4923d04b559f4d29a8bfc6cda04eb5b0d3c460751c2402c5c5cc9109c929181900390910190a150565b60015481565b6003805460408051602060026001851615610100026000190190941693909304601f810184900484028201840190925281815292918301828280156103385780601f1061030d57610100808354040283529160200191610338565b820191906000526020600020905b81548152906001019060200180831161031b57829003601f168201915b505050505081565b60408051808201909152600080825260208201529056fea165627a7a7230582077bcdbf3e626f1b31f04d2129af10c0e37bc6973c784f7248f94311e95e5a4a90029",
  "source": "pragma solidity ^0.5.0;\n\ncontract CrowdFunding{\n\tstruct Backer{\n\t\taddress payable addr;\n\t\tuint amount;\n\t}\n\n\taddress payable public owner;\n\tuint public numBacker;\n\tuint public deadline;\n\tstring public campaignStatus;\n\tbool ended;\n\tuint public goal;\n\tuint public amountRaised;\n\tmapping (uint => Backer) backers;\n\n\tevent Deposit(address _from, uint amount); \n\n\tconstructor(uint _deadline, uint _goal) public {\n\t\towner = msg.sender;\n\t\tnumBacker = 0;\n\t\tdeadline = _deadline;\n\t\tgoal = _goal;\n\t\tcampaignStatus = \"Funding\";\n\t\tamountRaised = 0;\n\t\tended = false;\n\t}\n\n\tfunction fund() public payable{\n\t\tnumBacker++;\n\t\tBacker memory _baker = backers[numBacker];\n\t\t_baker.addr = msg.sender;\n\t\t_baker.amount = msg.value;\n\t\tamountRaised += _baker.amount;\n\t\towner.transfer(msg.value);\n\t\temit Deposit(msg.sender, msg.value);\n\t}\n}",
  "sourcePath": "/home/guha/sol_code/CrowdFunding/contracts/CrowdFunding.sol",
  "compiler": {
    "name": "solc",
    "version": "0.5.0+commit.1d4f565a.Emscripten.clang"
  },
  "schemaVersion": "3.0.2",
  "updatedAt": "2019-11-19T18:18:16.915Z",
  "devdoc": {
    "methods": {}
  },
  "userdoc": {
    "methods": {}
  }
}